:020000040800F2
:1000000000A000205D0200086102000863020008F1
:10001000A1020008A3020008B902000800000000C5
:10002000000000000000000000000000CF020008F7
:10003000D102000800000000D3020008D502000829
:10004000E9020008E9020008E9020008E9020008E4
:10005000E9020008E9020008E9020008E9020008D4
:10006000E9020008E9020008E9020008E9020008C4
:10007000E9020008E9020008E9020008E9020008B4
:10008000E9020008E9020008E9020008E9020008A4
:10009000E9020008E9020008E9020008E902000894
:1000A000E9020008E9020008E9020008E902000884
:1000B000E9020008E9020008E9020008E902000874
:1000C000E9020008E9020008E9020008E902000864
:1000D000E9020008E9020008E9020008E902000854
:1000E000E9020008E9020008E9020008E902000844
:1000F000E9020008E9020008E9020008E902000834
:10010000000000000000000000000000E9020008FC
:10011000E9020008E9020008E9020008E902000813
:10012000E9020008E9020008E9020008E902000803
:10013000E9020008E90200080000000000000000D9
:10014000E9020008E9020008E902000800000000D6
:10015000000000000000000000000000000000009F
:100160000000000000000000E9020008E9020008A9
:10017000E90200080000000000000000000000008C
:1001800000000000E902000807B500F0CFF8294B95
:10019000294A93420BD293E806000C3353F8040C1F
:1001A0009042F5D951F8044B42F8044BF8E7234B41
:1001B000234A934209D253F8082B53F8041C8A426D
:1001C000F6D2002042F8040BF9E700F0B1F86846D7
:1001D00001A900F0A3F81B4C1B4BE41AA410002546
:1001E0001E46A54204DA56F8253098470135F8E74F
:1001F000164B174CE41AA41000251E46A54204DA3B
:1002000056F8253098470135F8E79DE8030000F0DF
:100210005BF9104C104BE41A0646A4101D46002C46
:1002200004DD013C55F824309847F8E7304600F0EB
:1002300071F800BFEC020008040300080403000882
:100240001403000814030008140300081403000832
:100250001403000814030008140300081E48004794
:10026000FEE71EF0040F0CBFEFF30880EFF30980E8
:1002700071461A4A104710B5084C236B9B070BD5E3
:10028000E36A002B08DA4BF6AB6100F063F818B1B3
:100290004FF00043E36210BDFEE700BF00ED00E059
:1002A000FEE71EF0040F0CBFEFF30880EFF30980A8
:1002B00071460B4A1047FEE71EF0040F0CBFEFF328
:1002C0000880EFF309807146064A1047FEE7FEE713
:1002D000FEE7FEE77047000089010008770200088A
:0A02E000B7020008CD020008FEE797
:1002EC00CC040008000000201C000020CC040008F6
:1002FC0000000010000000101C0000202000002056
:08030C000000001000000010C9
:1003140008B500F00DF8000001230360014B0B60E9
:10032400704700BF0000002000F020B800F096B82D
:10033400BFF34F8F0449054BCA6802F4E0621343CC
:10034400CB60BFF34F8FFEE700ED00E00400FA0539
:1003540083691A888A4207D10268033A012A03D8BA
:10036400023383610120704700207047364B1A68BE
:1003740042F001021A605968344A0A405A601A6805
:1003840022F0847222F480321A601A6822F48022E5
:100394001A605A6822F4FE025A60DA6A22F00F02E6
:1003A400DA62196B2A4A82B00A401A6300229A6000
:1003B400009201921A6842F480321A601A6802F4B8
:1003C40000320192009A01320092019A1AB9009AFD
:1003D400B2F5A06FF2D11A6812F4003218BF0122EC
:1003E4000192019A012A05D01A4B4FF000629A60DB
:1003F40002B07047184A122111605A685A605A684C
:100404005A605A6842F480625A605A6822F47C1234
:100414005A605A6842F4E8125A601A6842F08072CC
:100424001A601968084A8901FBD5516821F0030153
:100434005160516841F0020151605A6802F00C02A7
:10044400082AFAD1D0E700BF001002400CC07FF8A0
:10045400CCFC00FF00ED00E000200240144A1549E6
:10046400536803F00C03042B10B501D0082B01D002
:10047400114B12E053685068C00349BFD06A0F485B
:100484000D4C00F00F00C3F3834348BF013003F168
:10049400020348BFB4FBF0F043430B605368084ABF
:1004A400C3F30313D25C0B68D3400B6010BD00BFD1
:1004B400001002401800002000127A0000093D00DC
:0604C40008000020FEE725
:1004CC001C000020000000000000000000000000E4
:0C04DC00010203040607080900A24A04FC
:040000050800018965
:00000001FF
